:100000000C9416040C943E040C943E040C943E0490
:100010000C943E040C943E040C943E040C943E0458
:100020000C943E040C943E040C943E040C943E0448
:100030000C943E040C943E040C943E040C943E0438
:100040000C94EC180C943E040C94F61B0C94281C95
:100050000C943E040C943E040C943E040C943E0418
:100060000C943E040C943E04466F6E7420757064CC
:1000700061746520646F6E652E20526573746172C1
:1000800074696E672073797374656D2E2E0A0A0089
:100090000A546F20736B69702074686520757064F2
:1000A0006174652C206A7573742072657374617253
:1000B00074207468652073797374656D2E0A00531B
:1000C000797374656D2077696C6C207265626F6FEF
:1000D00074207768656E20616C6C20323535206342
:1000E00068617261637465727320617265207374F4
:1000F0006F7265642E0A00596F752077696C6C20E9
:100100006765742061206D65737361676520666F34
:1001100072206561636820636861726163746572EF
:100120002073746F7265642E0A000A0A5265616456
:100130007920666F7220666F6E742075706C6F61C7
:10014000642E20506C656173652073656E64202A8F
:100150002E6D636D2066696C652E0A0A0020534B74
:10016000495020555044415445204259205245534E
:1001700054415254494E470053595354454D20570A
:10018000494C4C205245424F4F54205748454E2031
:10019000444F4E4500202020333834303020424137
:1001A000554420564941205445524D4E414C002063
:1001B000504C4553452053454E44204348415241FD
:1001C00043544552532057495448005741495449D4
:1001D0004E4720464F5220434841524143544552D6
:1001E0002055504441544500090D0E0E0E0E0E0EC2
:1001F0000E0E0E0E0E0A0C0E0E0E0E0E0E0E0E0E25
:100200000E0B0D00050101010101010101010101B8
:1002100001010101010101010101010101010600CA
:100220000220525353493A8388888888888888886E
:1002300088888888888888888889020002204652B1
:1002400045513A203F3F3F3F2047487A2020202019
:1002500020202020202002000701010101010101CE
:10026000010101010101010101010101010101017E
:10027000010108000220204155544F204D4F4445B4
:10028000205345454B202020202020202020020004
:100290000220204D414E55414C204C494E45415283
:1002A000204D4F4445202020202002000220204DD8
:1002B000414E55414C2042414E44204D4F44452033
:1002C0002020202020200200030101010101010162
:1002D000010101010101010101010101010101010E
:1002E00001010400090D0E0E0E0E0E0E0E0E0E0E66
:1002F0000E0A0C0E0E0E0E0E0E0E0E0E0E0B0D0036
:1003000005010101010101010101010101010101D9
:100310000101010101010101010106000252756E96
:100320003A3F3F204D494E3A3F3F3F2020204D412C
:10033000583A3F3F3F2002000220205253534920A9
:1003400043414C4942524154494F4E2020202020E5
:10035000202002000501010101010101010101014B
:100360000101010101010101010101010101060079
:1003700002202020202042414E44205343414E4E33
:100380004552202020D020302E30020003010101F0
:10039000010101010101010101010101010101014D
:1003A0000101010101010400050101010101010137
:1003B00001010101010101010101060002202046A5
:1003C0004F4E542055504C4F4144202020200200D5
:1003D000022020525353492043414C494252415438
:1003E00045200200022020564944454F203A202053
:1003F00020202020202002000220204D414E554187
:100400004C3A2020202020202020020002202053CF
:100410004156452053455454494E4753202002002D
:100420000220204558495420202020202020202030
:100430002020020007010101010101010101010168
:1004400001010101010108000220202020202020BC
:100450005345545550202020202002000301010163
:10046000010101010101010101010101010104007A
:100470000501010101010101010101010101010168
:1004800001060002202053455455502020202020F2
:100490002020202002000220204D414E55414C20BA
:1004A0004D4F4445202020020002202042414E446E
:1004B000205343414E4E455220200200022020414D
:1004C00055544F20534541524348202020020002FA
:1004D0002020455849542020202020202020202062
:1004E00002000701010101010101010101010101F6
:1004F000010101080002204D4F44452053454C4561
:100500004354494F4E200200030101010101010142
:1005100001010101010101010104000501010101C5
:100520000101010101010101010101010600022097
:10053000204D41524B4F20484F45504B454E2002D5
:1005400000022020202056312E312E332020202062
:10055000202002000220202032322E31312E323073
:1005600031352020200200070101010101010101B4
:100570000101010101010101080002205258353832
:1005800030382050524F204F5344200200030101C5
:100590000101010101010101010101010101040049
:1005A000A0A1A2A3A4A5A6A7A8A9AAABACADAEAFD3
:1005B000B0B1B2B3B4B5B6B7B8B9BABBBCBDBEBFC3
:1005C000C0C1C2C3C4C5C6C700000000000000000F
:1005D0000101010101010101020202020202020203
:1005E00003030303030303030404040404040404D3
:1005F00041414141414141414242424242424242E3
:100600004545454545454545464646464646464692
:100610005252525252525252E916D516C116AD16C6
:100620009916851671165D16651678168B169E1628
:10063000B116C416D716EA164916351621160D1628
:10064000FD161117251739176C1680169416A81663
:10065000BC16D016E416F8161A163F16641689163C
:10066000AE16D316F8161D17052A9B29912987293E
:100670001D29132909299F2803290C2916291F2917
:10068000892992299C29052A95288B2881281728B1
:100690000F2A192A832A8D2A062910291A29842922
:1006A0008E299829022A0C2A1D289028022915290A
:1006B00087299A290C2A1F2A5258353830384F5327
:1006C00044524556312E312E3200407A10F35A00F2
:1006D000A0724E18090010A5D4E80000E87648176B
:1006E0000000E40B54020000CA9A3B000000E1F550
:1006F00005000080969800000040420F000000A016
:100700008601000000102700000000E80300000040
:10071000006400000000000A00000000000100006A
:100720000000002C76D888DC674F0823DFC1DFAEDD
:1007300059E1B1B796E5E3E453C63AE651997696A6
:10074000E8E6C28426EB898C9B62ED407C6FFCEF6F
:10075000BC9C9F40F2BAA56FA5F490055A2AF75C9D
:10076000936B6CF9676DC11BFCE0E40D47FEF5204F
:10077000E6B500D0ED902E03009435770500808417
:100780001E080000204E0A000000C80C333333332B
:100790000F986E12831141EF8D2114893BE6551697
:1007A000CFFEE6DB18D1844B381BF77C1D901DA4CF
:1007B000BBE424203284725E228100C9F124ECA1C2
:1007C000E53D276E616E00696E660000000008005E
:1007D0000201000003040700000000000000000107
:1007E00002040810204080010204081020010204C5
:1007F0000810200404040404040404020202020297
:100800000203030303030300000000230026002962
:100810000000000000250028002B0000000000243C
:100820000027002A00006207E60F581C11241FBE93
:10083000CFEFD8E0DEBFCDBF12E0A0E0B1E0EEEC3C
:10084000FFE302C005900D92AA3BB107D9F724E05F
:10085000AAEBB2E001C01D92A13FB207E1F718E098
:10086000CCE2D8E004C02297FE010E949F1FC6324E
:10087000D107C9F70E940C1E0C94E51F0C940000D0
:10088000283008F027E03327DA01990F311D87FD62
:10089000916000966105710539F432602E5F3D93D9
:1008A00030E32A95E1F708959F3F30F080387105D5
:1008B000610509F03C5F3C5F3D93913008F0806832
:1008C000911DDF93CF931F930F93FF92EF92192FF8
:1008D000987F9695E92F96959695E90FFF27ED5D00
:1008E000F84F99273327EE24FF24A701E70105904D
:1008F0000894079428F4360FE71EF81E491F511D6F
:10090000660F771F881F991F0694A1F7059007941B
:1009100028F4E70EF81E491F561FC11D770F881FC8
:10092000991F661F0694A1F70590079428F4F80E06
:10093000491F561FC71FD11D880F991F661F771F9C
:100940000694A1F70590079420F4490F561FC71F7E
:10095000D81F990F661F771F881F0694A9F78491E7
:100960001095177041F0D695C79557954795F79410
:10097000E7941A95C1F7E9ECF6E0689415901591A3
:1009800035916591959105907FE27395E118F10A93
:10099000430B560BC90BD009C0F7E10CF11E431FE6
:1009A000561FC91FD01D7EF4703311F48A95E6CF0F
:1009B000E894015030F0080F0AF40027021708F4F9
:1009C000202F2395022F7A3328F079E37D932A95FF
:1009D000E9F710C07D932A9589F606949795679557
:1009E000379517951794E118F10A430B560BC90B6D
:1009F000D00998F023957E9173957A3308F070E3CF
:100A00007C932013B8F77E9170617D9330F08395CD
:100A100071E37D9370E32A95E1F71124EF90FF9045
:100A20000F911F91CF91DF91992787FD90950895A0
:100A3000FA01AA27283051F1203181F1E8946F930F
:100A40006E7F6E5F7F4F8F4F9F4FAF4FB1E03ED0B5
:100A5000B4E03CD0670F781F891F9A1FA11D680F53
:100A6000791F8A1F911DA11D6A0F711D811D911D86
:100A7000A11D20D009F468943F912AE0269F1124FB
:100A80003019305D3193DEF6CF010895462F47705F
:100A9000405D4193B3E00FD0C9F7F6CF462F4F70BA
:100AA000405D4A3318F0495D31FD4052419302D018
:100AB000A9F7EACFB4E0A6959795879577956795BE
:100AC000BA95C9F700976105710508959B01AC01BE
:100AD0000A2E06945795479537952795BA95C9F7E5
:100AE000620F731F841F951FA01D089580E090E082
:100AF000089580E090E0089580E090E008950895E2
:100B0000FC011382128248EE53E060E070E04483FF
:100B100055836683778381E391E091838083089591
:100B2000FC016115710521F06130710521F0089516
:100B3000108A86E003C080E4808B88E0818B089572
:100B400060E086E00E94521A64E08CEB92E00E9422
:100B50005C0764E08CEB92E00E945C0761E086E059
:100B60000C94521AFC01648745876687478708956D
:100B7000CF93DF93FC012785C685D0E0FEE12F9F50
:100B8000C00DD11D112460E086E00E94521A64E07D
:100B90008CEB92E00E945C0763E08CEB92E00E9499
:100BA0005C0765E08CEB92E00E945C076D2F8CEB9C
:100BB00092E00E945C0766E08CEB92E00E945C078A
:100BC0006C2F8CEB92E0DF91CF910C945C07CF936C
:100BD000DF93EC0167E08CEB92E00E945C076FEF23
:100BE0008CEB92E00E945C0761E086E00E94521A62
:100BF0008F858F5F8F87DF91CF9108951F93CF935C
:100C0000DF93EC01162F6C3731F40E94E705CE011B
:100C10000E94B8050AC067E08CEB92E00E945C0776
:100C2000612F8CEB92E00E945C0781E090E0DF9105
:100C3000CF911F9108951F93CF93DF93EC01162F4F
:100C400060E086E00E94521A60E08CEB92E00E9425
:100C50005C07113049F028F0123061F468896C6348
:100C600005C06889606202C068896C618CEB92E0A3
:100C70000E945C0761E086E0DF91CF911F910C94A8
:100C8000521A1F93CF93DF93EC0161E086E00E943C
:100C9000191A60E082E00E94191A61E082E00E9465
:100CA000521A60E086E00E94521A6CEE8CEB92E0E1
:100CB0000E945C076FEF8CEB92E00E945C07182F9C
:100CC00060E08CEB92E00E945C07688962608CEBCC
:100CD00092E00E945C0762E370E080E090E00E9496
:100CE00065196CE68CEB92E00E945C07612F6F7EC9
:100CF0008CEB92E00E945C071092BB021092BA0249
:100D00008091BA029091BB020C97CCF46091BA0228
:100D10007091BB02605F8CEB92E00E945C0760E028
:100D20008CEB92E00E945C072091BA023091BB02EA
:100D30002F5F3F4F3093BB022093BA02E1CF61E0B7
:100D4000CE01DF91CF911F910C941B06CF93C62F3C
:100D500060E086E00E94521A62E08CEB92E00E9412
:100D60005C076C2F6F738CEB92E00E945C0761E074
:100D700086E0CF910C94521ACF93C62F60E086E0A4
:100D80000E94521A63E08CEB92E00E945C076C2F89
:100D90006F718CEB92E00E945C0761E086E0CF917E
:100DA0000C94521AEF92FF920F931F93CF93DF93FD
:100DB00000D0CDB7DEB7162F60E086E049835A83B6
:100DC0000E94521A60E08CEB92E00E945C0760E0A7
:100DD0008CEB92E00E945C0769E08CEB92E00E9451
:100DE0005C07612F8CEB92E00E945C074981E42E46
:100DF0005A81F52E10E0F70101917F016AE08CEB3A
:100E000092E00E945C07612F8CEB92E00E945C07ED
:100E10006BE08CEB92E00E945C07602F8CEB92E021
:100E20000E945C071F5F163331F768E08CEB92E09D
:100E30000E945C0760EA8CEB92E00E945C0760EA2B
:100E40008CEB92E00E945C0785FDF9CF60E08CEBB3
:100E500092E00E945C076CE08CEB92E00E945C07E1
:100E600061E086E00F900F90DF91CF911F910F917D
:100E7000FF90EF900C94521A1CBC6C7263656CBDB1
:100E80008DB58EB50895CF93DF93EC0161E08DE0D1
:100E90000E94191A61E08BE00E94191A60E08CE050
:100EA0000E94191A61E08AE00E94191A60E0CE01DE
:100EB000DF91CF910C943C076EBD0DB407FEFDCFC2
:100EC0008EB508958CEB92E00C9443070C94CF1FE1
:100ED0000C94D71F60E08DE00E94521A81E090E0F0
:100EE0000E948D1961E08BE00E94521A81E090E02F
:100EF0000E948D1961E08DE00E94521A81E090E01D
:100F00000E948D1960E08DE00E94521A81E090E00D
:100F10000C948D1960E08DE00E94521A81E090E0FF
:100F20000E948D1960E08BE00E94521A81E090E0EF
:100F30000E948D1961E08DE00E94521A81E090E0DC
:100F40000E948D1960E08DE00E94521A81E090E0CD
:100F50000C948D1981E090E00E948D1960E085E08D
:100F60000E94521A81E090E00C948D1981E090E08B
:100F70000E948D1961E085E00E94521A81E090E0A4
:100F80000C948D191F93CF93DF93E82FF0E0EE0FB1
:100F9000FF1FE859F94FC591D4911CBC0E94B607B8
:100FA0000E94AA070E946A070E948A070E948A0775
:100FB0000E948A070E946A0710E1C0FF03C00E94D6
:100FC0006A0702C00E948A07D695C7951150A9F7F3
:100FD0000E948A070E948A070E948A070E948A0745
:100FE0000E94B60760E08CEB92E0DF91CF911F91F9
:100FF0000C943C07982FE1E1F4E080E0219129175F
:1010000021F08F5F8832D1F780E008950E94361971
:1010100020919B0330919C03621B730B6E31710511
:1010200048F48EE190E0861B970BBC0180E090E0D5
:101030000C9465190895EF92FF921F93CF93DF935D
:101040001F92CDB7DEB7182F80E169830E94D319B4
:101050007C0169814FEF460F6FEF610F89E394E0E8
:101060000E94B20589E394E00E94B805B70180E0D0
:1010700090E00E941C1E2AE038E240EA5BE30E94F6
:10108000AA1E20E030E048E751E40E94AA1E9F9388
:101090008F937F936F931F9280ED8F938FE391E0F7
:1010A0009F938F9389E394E09F938F930E94D7142B
:1010B0000FB6F894DEBF0FBECDBF89E394E00F906A
:1010C000DF91CF911F91FF90EF900C94E705AF92C5
:1010D000BF92CF92DF92EF92FF920F931F93CF9325
:1010E000CAE000E010E08FE00E94D319080F191F3A
:1010F000C150C9F7C8016AE070E00E94291F7B0156
:1011000080910B018530B1F4809193039091940309
:101110006817790720F47093940360939303809188
:101120009103909192038E159F0520F4F092920303
:10113000E092910360919703709198032091950339
:1011400030919603E616F70630F0C7012E153F05DD
:1011500018F4C90101C0CB017901E61AF70A00E0D1
:1011600010E09C01261B370BB90180E090E01F9234
:101170001F921F9224E62F93A12CB12C6501A394FA
:1011800020E030E0A9010E94C41D0F900F900F9045
:101190000F90CB01CF911F910F91FF90EF90DF90B7
:1011A000CF90BF90AF9008951F93CF93DF931F927E
:1011B000CDB7DEB7962F142F91506FEF680F492FE0
:1011C00089E394E059830E94B20589E394E00E9488
:1011D000B80559815F931F9387E491E09F938F93A4
:1011E00089E394E09F938F930E94D7140F900F9000
:1011F0000F900F900F900F9089E394E00F90DF9184
:10120000CF911F910C94E705EF92FF920F931F93DC
:10121000CF93DF93CDB7DEB76E970FB6F894DEBFEE
:101220000FBECDBFF82EE62EBA018E010F5F1F4F05
:10123000C8010E94B21F4FEF4E0D6FEF6F0D89E393
:1012400094E00E94B20589E394E00E94B8051F93E0
:101250000F9387E491E09F938F9389E394E09F93AA
:101260008F930E94D71489E394E00E94E7050F90C2
:101270000F900F900F900F900F906E960FB6F894FE
:10128000DEBF0FBECDBFDF91CF911F910F91FF90B9
:10129000EF9008951F93CF93DF931F92CDB7DEB7E2
:1012A000962F142F91506FEF680F492F89E394E028
:1012B00059830E94B20589E394E00E94B8055981E0
:1012C0005F931F938AE491E09F938F9389E394E067
:1012D0009F938F930E94D7140F900F900F900F90B1
:1012E0000F900F9089E394E00F90DF91CF911F91C1
:1012F0000C94E705CF93962FC42F91506FEF680F92
:10130000492F89E394E00E94B20589E394E00E94AA
:10131000B8058C2F992787FD90959F93CF938DE4E7
:1013200091E09F938F9389E394E09F938F930E9422
:10133000D7140F900F900F900F900F900F9089E39C
:1013400094E0CF910C94E7054F925F927F928F9239
:101350009F92AF92BF92CF92DF92EF92FF920F9344
:101360001F93CF93DF931F92CDB7DEB7B82EF62E23
:10137000C42E922E642F70E084E690E00E943D1F00
:101380002B01862ECB0163E070E00E943D1F762E7C
:1013900043E86F2D8B2D0E947A09B394DB2C90E0EB
:1013A000A12CEE24E394092D10E0CE1430F1E49C3E
:1013B000F001E59CF00D1124E017F1074CF447E82B
:1013C0006F2D8D2D99830E947A09AE2C998112C0C0
:1013D00091110AC0892DA89C80191124672D0E94A3
:1013E0001D1F482F4D5701C048E86F2D8D2D0E94BD
:1013F0007A0991E0E394D394D8CF49E86F2D8B2DEF
:101400008C0D0F90DF91CF911F910F91FF90EF9076
:10141000DF90CF90BF90AF909F908F907F905F9024
:101420004F900C947A092F923F924F925F926F9255
:101430007F928F929F92AF92BF92CF92DF92EF9264
:10144000FF920F931F93CF93DF93CDB7DEB7A5978E
:101450000FB6F894DEBF0FBECDBF982EA42E34E693
:10146000341710F4E4E6AE2E6D50764136E6369F22
:10147000C001379F900D112460E472E00E94291F83
:10148000162F16956170772781E06827A62FA17027
:10149000BA2E2223F1F08CE1E6E6F1E0DE011196AE
:1014A00001900D928A95E1F7212F30E0E1E0F0E024
:1014B000EC0FFD1FE20FF31FBB2011F081E801C00C
:1014C00082E88083AE014F5F5F4F6CE082E00E9454
:1014D000D408692D70E084E690E00E943D1FFB0176
:1014E000762ECB0163E070E00E943D1F6D8F60E0BF
:1014F000612C88248394812F90E076E0789F90017E
:10150000799F300D11243DA32CA34A2C512CDC01D2
:10151000A552BC4FBF8FAE8F9C012A503C4F39A3C0
:1015200028A3DC01AB55BC4FBBA3AAA39C012F5F32
:101530003F4F729F1001739F300C1124AC01405437
:101540005C4F0197789F6001799FD00C112498140B
:1015500008F478C0E82CF12C9701215031090CA136
:101560001DA1020F131F0A511D4FD8011C911F3FCF
:1015700009F410E0EE9EC001EF9E900DFE9E900DCE
:101580001124841595054CF4BB2019F01F701063CD
:1015900002C0107F1360682C1AC0611112C08A2D1E
:1015A000679C801911246D8D0E941D1FBB2031F096
:1015B0001F70B0E18B9FC001112401C0107F182B58
:1015C00005C0BB2011F01F7001C0107F61E0AE8D1F
:1015D000BF8D8C91882321F0812F82958F70182BDD
:1015E000A8A1B9A18C91882329F0B0E11B9FC0016B
:1015F0001124182B8CA19DA1820F931F8A519D4FFE
:10160000DC011C93AAA1BBA18C91882339F0C101F4
:10161000820F931F8A519D4FDC011C93DA018C913C
:10162000882371F08CA19DA1820F931F8A519D4F39
:10163000DC018C912C0D3D1D2A513D4FD9018C931D
:10164000839485CFA5960FB6F894DEBF0FBECDBFAD
:10165000DF91CF911F910F91FF90EF90DF90CF908E
:10166000BF90AF909F908F907F906F905F904F90C2
:101670003F902F900895EBEEF2E08FEFDF0115978A
:101680008C9311968C9311968C9311968C93119642
:101690008C938083369693E0ED38F90779F70895B7
:1016A000FF920F931F93CF93DF93F82E0E943B0B73
:1016B000C1E1D4E010E00991802F0E94C2070E948E
:1016C000361960939B0370939C0380939D039093C2
:1016D0009E030E9406080E946708482F8093A20379
:1016E000181708F4182FE02FF0E0EE0FFF1FE85E48
:1016F000F94F6591749120E08F2D0E94130A24E028
:10170000C933D207C1F620E5129FC001112464E657
:1017100070E00E94291F60930401DF91CF911F9117
:101720000F91FF900895CF92DF92EF92FF920F9367
:101730001F93CF93DF93CDB7DEB76C970FB6F894B6
:10174000DEBF0FBECDBFD82E8CE1E6E6F1E0DE01B4
:10175000119601900D928A95E1F70DEB12E020E1D0
:1017600034E090E086E6C82E40E4E42E42E0F42E19
:10177000F80181918F01891710F5F9018081E82F17
:10178000F0E0EE0FFF1FE85EF94F45915491E82F0E
:10179000F0E0E056FA4FE4914D505641C49EC0012E
:1017A000C59E900D1124B7010E94291F6695A1E0E6
:1017B000B0E0AC0FBD1FA60FB11DEC9380E02F5F12
:1017C0003F4FF2E0063E1F0711F0982FD1CFAE0138
:1017D0004F5F5F4F6D2D82E00E94D4086C960FB66C
:1017E000F894DEBF0FBECDBFDF91CF911F910F9157
:1017F000FF90EF90DF90CF900895FF920F931F938B
:10180000CF93DF93CDB7DEB76C970FB6F894DEBFFA
:101810000FBECDBF082F1C8E10E05AE0F52E10171A
:1018200021F1DE01119620E030E0412F50E04A51D5
:101830005D4FFA01E20FF31FE081E43328F4F0E09A
:10184000EA59FD4F908101C09EE89D932A5F3F4F6A
:10185000223A310571F76F2D611BAE014F5F5F4F6B
:1018600082E00E94D4081F5FDACF6C960FB6F8941E
:10187000DEBF0FBECDBFDF91CF911F910F91FF90C3
:101880000895BF92CF92DF92EF92FF920F931F9332
:10189000CF93DF93CDB7DEB7A0970FB6F894DEBF36
:1018A0000FBECDBFF82E8CE1EDE0F1E0DE01119628
:1018B00001900D928A95E1F71D8E1E8E1F8E18A243
:1018C0000F2D10E0F801E051FA4FE491E9878F2DD8
:1018D0008770DE01A80FB11DA80FB11D885E1C9690
:1018E0008C93AE014F5F5F4F64E082E00E94D408AA
:1018F0008F2D90E0880F991F885E994FFC014591CC
:10190000549165E08AE00E944A09DE011196CE01F9
:1019100081969D0140E24D93A817B907E1F7D12CBC
:10192000C80188539A4F7C01E6E6CE2E00E412E00F
:10193000F70184916D2DF8E08F9F600D1124862FA3
:1019400090E0880F991F885E994FFC014591549152
:10195000E62FF0E0E056FA4FB4904D505641C49E49
:10196000C001C59E900D1124B8010E94291F6695E3
:10197000F901E60FF11DB082D39488E0D812D8CFD8
:10198000A9016DE082E00E94D408A0960FB6F894F9
:10199000DEBF0FBECDBFDF91CF911F910F91FF90A2
:1019A000EF90DF90CF90BF90089589E394E00E947C
:1019B000A0054DE855E062E086E00E9404094AE790
:1019C00055E063E086E00E94040947E655E064E0E4
:1019D00086E00E94040944E555E065E086E00E9447
:1019E000040941E455E066E086E00E9404094EE205
:1019F00055E067E086E00E9404094BE155E068E0AD
:101A000086E00C94040989E394E00E94A00548E074
:101A100055E062E086E00E94040945EF54E063E08F
:101A200086E00E94040942EE54E064E086E00E94F1
:101A300004094FEC54E065E086E00E9404094CEB99
:101A400054E066E086E00E94040949EA54E067E059
:101A500086E00E94040946E954E068E086E00E94BE
:101A6000040943E854E069E086E00E94040940E785
:101A700054E06AE086E00C94040989E394E00E9453
:101A8000A0054CE554E062E086E00E94040948E4C9
:101A900054E063E086E00E94040944E354E064E01B
:101AA00086E00E94040940E254E065E086E00E947E
:101AB00004094CE054E066E086E00E94040948EF27
:101AC00053E067E086E00E94040944EE53E068E0DA
:101AD00086E00E94040940ED53E069E086E00E9440
:101AE00004094CEB53E06AE086E00E94040948EAEE
:101AF00053E06BE086E00E94040980918D03811120
:101B000003C042E851E002C049E851E067E081E1EA
:101B10000E94D40880910801811103C040E951E07E
:101B200002C045E951E068E081E10C94D408CF930C
:101B3000C82F89E394E00E94A0054CE853E061E0DF
:101B400082E00E940409C1110AC040E753E062E04C
:101B500082E00E94040944E553E063E00FC048E3DB
:101B600053E062E082E00E9404094CE153E063E04C
:101B700082E00E94040940E053E064E082E00E94B9
:101B8000040944EE52E06BE082E00E94040986E022
:101B90000E94FD0B4AE951E067E08AE00E94D40808
:101BA00062E087E1CF910C941B08CF93DF93D82F8D
:101BB000C62F89E394E00E94A00548EC52E061E062
:101BC00082E00E940409D1110AC080918D03813006
:101BD00019F44CEA52E005C040E952E002C044E783
:101BE00052E062E082E00E94040962E087E10E9424
:101BF0001B0848E552E063E082E00E9404094CE3E0
:101C000052E065E082E00E94040940E252E066E0B2
:101C100082E00E94040944E052E067E082E00E9412
:101C2000040948EE51E06BE082E00E9404098C2F29
:101C30000E94410C83E00E94FD0B4AE951E069E0FB
:101C40008AE00E94D40883E00E94500B8FEF8093BB
:101C5000A00383E0DF91CF910C94FD0BFF920F93D3
:101C60001F93CF93DF93182F042FF22ED62FC1E0AE
:101C70000C1770F0FC1203C045EA51E002C04FE7B8
:101C800051E06D2F812F0E94D408CF5FDF5FF0CF2E
:101C9000DF91CF911F910F91FF9008951F93CF93E4
:101CA000DF9361E080E00E94191A60E081E00E9409
:101CB000191A62E081E00E94521A60E080E00E94FE
:101CC000521A81E00E94881AEC0161E081E00E94D2
:101CD000191A60E080E00E94191A62E080E00E9418
:101CE000521A60E081E00E94521A80E00E94881A35
:101CF00011E0892B09F010E060E080E00E94191AE1
:101D000062E080E00E94521A60E081E00E94191AAD
:101D100062E081E00E94521ACD2B21F4112331F0B0
:101D200013E005C0112319F012E001C011E0812F6A
:101D3000DF91CF911F9108950F931F93CF93DF935E
:101D40000E944E0E882309F1C0E0D0E00FEF0E9400
:101D50004E0E182F801302C0219602C0C0E0D0E0C2
:101D600061E070E080E090E00E946519C431D10527
:101D700010F4012FECCF812F112341F026E930E040
:101D8000309307012093060101C080E0DF91CF91DD
:101D90001F910F91089561E086E00C94521ACF9341
:101DA000DF9381E08093DB038093A6038093F903A4
:101DB0008093DF038093E0038093C7038093E40361
:101DC000809303048093EB038093B60380930A040B
:101DD0008093F0038093D7038093F2038093DA0318
:101DE00080931004E1E1F4E080E081938F5F88321A
:101DF000E1F787E290E0A1E1B4E09D012151344098
:101E000028173907D4F46D91E62FF0E0EE0FFF1F8D
:101E1000E85EF94F459154917C91E72FF0E0EE0F89
:101E2000FF1FE85EF94F259134912417350728F7F5
:101E3000FD01319770836C93E0CF0197E1F6C8E024
:101E4000D0E0CE010E946607FE01E055F94F2591D2
:101E50003491821381C02196C931D10591F7C0E038
:101E600080E090E00E94660780930B0181E090E0A3
:101E70000E9466078093A30383E090E00E946607B8
:101E8000D82F82E090E00E9466072D2F30E0322F9D
:101E90002227282B309398032093970385E090E026
:101EA0000E946607D82F84E090E00E9466072D2FDD
:101EB00030E0322F2227282B30939603209395036E
:101EC00086E090E00E9466078093080187E090E03A
:101ED0000E94660780938D0381E0809399030E949E
:101EE000CB0E6091080170E089E394E00E949005B8
:101EF00089E394E00E94410668E289E394E00E944D
:101F0000A60669E189E394E00E94BC0661E085E0F1
:101F10000E94191A61E085E00E94521A61E085E092
:101F20000E94191A61E08BE00E94191A61E08DE0AD
:101F30000E94191A0E94D50CCC2331F047EA51E0D7
:101F40006CE083E00E94D40860ED77E080E090E0F0
:101F5000DF91CF910C94651961E080E090E00E94E0
:101F6000680760E081E090E00E9468076AE582E02F
:101F700090E00E94680760E083E090E00E946807BC
:101F80006CE284E090E00E94680761E085E090E008
:101F90000E9468076091080186E090E00E9468074F
:101FA00060918D0387E090E00E946807C8E0D0E070
:101FB000FE01E055F94F65917491CE010E946807CA
:101FC0002196C931D105A1F7C1E04ACF89E394E058
:101FD0000C948005DF92EF92FF920F931F93CF93A3
:101FE000DF93CDB7DEB7C854D1090FB6F894DEBF82
:101FF0000FBECDBF89E394E00E94A0054BEC51E0F9
:1020000062E081E00E9404094FEA51E065E081E06E
:102010000E94040945E951E066E081E00E9404095C
:1020200048E751E068E081E00E9404094DE551E095
:102030006BE081E00E94040926E040E056E960E0A0
:1020400070E084E594E00E94941B6AE271E084E50C
:1020500094E00E94D91C67EF70E084E594E00E9450
:10206000D91C6FEB70E084E594E00E94D91C60E914
:1020700070E084E594E00E94D91C00E010E0D12CCF
:10208000E12CF12C84E594E00E94CA1A8D3081F095
:102090000CF452C090ED980F923008F04DC0E1E47E
:1020A000F0E0EC0FFD1FED0DF11D8083D39444C0D3
:1020B00088E0D81240C022968FAD229790ED980FFD
:1020C0009230C8F5813311F080E001C080E823969A
:1020D0009FAD2397913309F4805C24969FAD24979C
:1020E000913309F4805E25969FAD2597913309F4CD
:1020F000805F26969FAD2697913309F4885F2796D7
:102100009FAD2797913309F48C5F28969FAD289750
:10211000913309F48E5F29969FAD2997913309F485
:102120008F5FE1E0F0E0EC0FFD1FEE0DFF1D8083FF
:102130008FEFE81AF80AD12C80E4E816F104C9F40C
:10214000AE014F5F5F4FB80189E394E00E94D20671
:102150000F5F1F4F4AE050E0B80184E594E00E9411
:10216000BC1D6EEB71E084E594E00E94071DE12C3C
:10217000F12C0F3F11050CF485CF68E670E084E583
:1021800094E00E94D91C60ED77E080E090E00E942E
:1021900065190C940000C85BDF4F0FB6F894DEBFE2
:1021A0000FBECDBFDF91CF911F910F91FF90EF90A8
:1021B000DF900895CF92DF92EF92FF920F931F93DB
:1021C000CF93DF938091060190910701009721F052
:1021D00020918C03213029F560E089E394E00E948E
:1021E0001B060E949C0E811107C064E670E080E02F
:1021F00090E00E946519F5CF86E990E09093070181
:102200008093060110928C0360918A0389E394E025
:102210000E941B060E949C0E8111FCCF10928C0321
:1022200009C020918B03211105C0019790930701EC
:102230008093060180910B01843009F4B2C30E949F
:102240009C0E833009F0ADC38091A103863038F035
:1022500086E080930B0181E080938E0303C08F5F43
:102260008093A1039091990380910B01911105C076
:1022700090910901891709F468C01092990383307D
:10228000F9F150F4813009F43FC0823009F053C0B5
:1022900080E00E94970D2AC0853059F008F443C0B1
:1022A000863009F048C082E080938A030E94030DC3
:1022B0003FC081E00E94970D1092980310929703FF
:1022C00080E991E090939603809395039093940313
:1022D00080939303109292031092910385E090E013
:1022E0009093900380938F030E943B0B1092A40362
:1022F000809111048093A30382E080938A0318C025
:102300006091A30380E003C06091A30381E00E9479
:10231000D50D81E080939F038093880380938A0387
:1023200010928B0308C082E080938A030E943D0DC7
:1023300081E080938B0360918A0389E394E00E949B
:102340001B0680910B018093090180910B01833062
:1023500021F0813009F0D1C046C00E949C0E82302D
:1023600001F580918D03813051F48091A3038F5F3B
:102370008093A3038832A8F01092A30312C0809127
:102380008903873220F48F5F8093890302C0109203
:102390008903E0918903F0E0EF5EFB4F8081809339
:1023A000A3030E949C0E8130F1F480918D03813053
:1023B00049F48091A30381508093A303883298F05D
:1023C00087E20FC080918903882311F0815001C0FA
:1023D00087E280938903E0918903F0E0EF5EFB4F91
:1023E00080818093A3038091A3030E94FA078093C6
:1023F000A4030E9406080E9467088093A203E0914C
:10240000A303F0E0EE0FFF1FE85EF94F65917491B2
:1024100021E0482F83E00E94130A83E00E94FD0B15
:102420002091A20341E166E089E00E94A409809125
:10243000A3030E94410CC0910B01C13009F07CC282
:1024400080919A03811133C080919F0381110BC049
:102450009091A20380910401891728F4C0939A03F4
:1024600010928B0369C210929F0381E080938B03CB
:10247000909188038091A403992339F0873210F456
:102480008F5F08C01092A40307C0882311F0815009
:1024900001C087E28093A403E091A403F0E0EF5E23
:1024A000FB4F80818093A3030E94410C45C24AECFC
:1024B00051E062E082E00E94D4080E949C0E8230CB
:1024C00051F4C0939F03C093880310929A034CED7C
:1024D00051E062E00FC00E949C0E813009F02CC2D6
:1024E00080939F031092880310929A034CED51E061
:1024F00062E082E00E94D4081FC2823019F0853069
:1025000009F0F8C00E943B0BE12CF12C06E0D02E24
:1025100087E28F1508F46BC0E11069C0CF2DD0E0C1
:10252000FE01EF5EFB4FC0808C2D0E94C2070E940F
:10253000361960939B0370939C0380939D03909343
:102540009E030E94361900919B0310919C032091D9
:102550009D0330919E03601B710B820B930B6E31B8
:1025600071058105910548F50E949C0E833021F488
:10257000D092A103EE24E39480910B01853009F3FE
:102580000E949C0E8230E9F64EEE51E062E083E05C
:102590000E94D4080E949C0E8230E1F30E949C0E9F
:1025A0008823E1F340E052E062E083E00E94D40837
:1025B0000E949C0E8230E1F3C4CF0E946708809392
:1025C000A203C354DD4F843210F0888301C0188207
:1025D000EC2DF0E0EE0FFF1FE85EF94F659174916E
:1025E00020E0482F86E00E94130AF39491CF86E002
:1025F0000E94FD0B84E00E94930B80910B018530BB
:1026000009F065C080918F03909190039C01215047
:1026100031093093900320938F03892BD1F560917A
:102620009303809194036093970380939803809120
:102630009103909192030A96909396038093950349
:1026400082E090E00E9468076091980383E090E048
:102650000E9468076091950384E090E00E946807FB
:102660006091960385E090E00E94680780910A01DE
:1026700080930B0142E152E06DE086E00E94D408B5
:1026800068EE73E080E090E00E9465190E943B0BC9
:102690001EC044E252E063E082E00E94D408409110
:1026A0008F035091900363E087E00E944A094091B4
:1026B00093035091940363E08EE00E944A09409195
:1026C00091035091920363E088E10E944A0980914E
:1026D000A403873220F48F5F8093A40302C010927A
:1026E000A403E091A403F0E0EF5EFB4F80818093B0
:1026F000A30322C1863009F056C021E045E065E021
:1027000087E00E942E0EC0E0D1E080910B01863060
:1027100009F012C180918E03811105C00E949C0EA8
:102720008330C1F407C010928E030E949C0E811169
:10273000FCCFF4CFC43010F4CF5F01C0C0E021E083
:102740002C0F45E065E087E00E942E0E0E949C0E53
:102750008330E1F30E949C0E8230B9F6C230E1F082
:1027600068F4CC23A1F0C13081F6C0930B01C09373
:102770000A01C0939F0310929A0312C0C33061F004
:10278000C43019F6D0938E03C0930B01BECF809155
:102790000A0180930B01B9CFC0930B01C0930A01CA
:1027A0000E943B0BB2CF843009F0C6C021E046E066
:1027B00065E087E00E942E0EC0E0D1E080910B0121
:1027C000843009F0B9C080918E03811105C00E9448
:1027D0009C0E8330C1F407C010928E030E949C0EA1
:1027E0008111FCCFF4CFC53010F4CF5F01C0C0E041
:1027F00021E02C0F46E065E087E00E942E0E0E944B
:102800009C0E8330E1F30E949C0E8230B9F6C230F8
:10281000C9F148F5CC2389F1C13081F660910A01F4
:1028200080E090E00E9468076091A30381E090E05F
:102830000E9468076091080186E090E00E946807A6
:1028400042E152E06CE086E00E94D40868EE73E05A
:1028500080E090E00E94651940E751E06CE086E07E
:102860000E94D4080AC0C43009F460C0C8F1C53061
:1028700009F0A4CF0E94EA0FA1CF80910A018093B2
:102880000B019CCF80918D03811105C0D0938D03E6
:1028900049E851E004C010928D0342E851E067E03E
:1028A00081E10E94D40860918D0387E090E00E944E
:1028B000680740E452E06CE08BE00E94D40868EEC8
:1028C00073E080E090E00E94651941E751E06CE020
:1028D0008BE00E94D4080E949C0E8230E1F36ECF00
:1028E00080910801811105C0D093080145E951E0AC
:1028F00004C01092080140E951E068E081E10E94C3
:10290000D4086091080186E090E00E94680741E5E4
:1029100052E06CE084E00E94D40860ED77E080E053
:1029200090E00E9465190C94000048CF85E08093E8
:102930000B010E943B0B42CF8091A3039091A00317
:10294000981781F00E94C2078091A3038093A0038F
:102950000E94361960939B0370939C0380939D03A0
:1029600090939E0380910501882361F081508093AC
:102970000501DF91CF911F910F91FF90EF90DF90B4
:10298000CF90089584E18093050162E087E1DF91B3
:10299000CF911F910F91FF90EF90DF90CF900C940B
:1029A0001B081092A1035ECC8FEF9FE70895CF9391
:1029B000DF93CDB7DEB79E01275F3F4F4F8158852C
:1029C00060E08D819E810E94E814DF91CF9108958F
:1029D0002F923F924F925F926F927F928F929F922F
:1029E000AF92BF92CF92DF92EF92FF920F931F931D
:1029F000CF93DF93CDB7DEB763970FB6F894DEBF02
:102A00000FBECDBF7C01262E5D874C876901CE01AC
:102A100001963C01EC85FD8520FC359120FE31912D
:102A2000FD87EC87332309F4BEC3353249F420FC1B
:102A3000359120FE3191FD87EC873532D1F40DC000
:102A40003A3059F4D701ED91FC910190F081E02DDD
:102A50006DE0C7013A8B09953A89D701ED91FC9158
:102A60000190F081E02D632FC701099546016401B3
:102A7000D1CF10E0512C20E02032A0F43B3269F09D
:102A800030F4303259F0333269F420612CC03D32D9
:102A900039F0303339F4216026C02260246023C02D
:102AA000286021C027FD29C080ED830F8A3078F48B
:102AB00026FF06C0BAE01B9F800D1124182F13C0FB
:102AC000EAE05E9E800D1124582E20620CC03E323A
:102AD00021F426FD68C3206406C03C3611F420684A
:102AE00002C0383651F4EC85FD8520FC359120FE7E
:102AF0003191FD87EC873111BFCF8BEB830F833092
:102B000018F42061305E06C08BE9830F833008F033
:102B1000DFC12F7E26FF16E02F73B22E353621F44B
:102B2000F22FF064BF2E08C0363621F4822F806861
:102B3000B82E02C011111150B7FE06C01C3348F464
:102B400044244394410E07C0183038F4212F412CFF
:102B500007C09CE3492E27E003C0412C27E017E083
:102B6000460194E0890E911CD6016D917D918D9165
:102B70009C91042DA3010E9440046C01398030FE19
:102B800002C033FE06C0B1FC06C0B2FC06C000E0C5
:102B900005C00DE203C00BE201C000E2832D8C7082
:102BA00009F43FC0002311F084E001C083E08515E3
:102BB00010F0512C0FC0581AB3FC0CC0D701ED9186
:102BC000FC910190F081E02D60E2C70109955A94D3
:102BD000A9F7EFCF002349F0D701ED91FC910190C7
:102BE000F081E02D602FC701099533FC03C007EC8D
:102BF00017E002C003EC17E0BB2DB071BB2EF8014B
:102C00006491662309F4C1C2B1106052D701ED91FD
:102C1000FC910190F081E02DC70109950F5F1F4FD6
:102C2000EECFB7FE0FC04C0C34FE04C08A81813356
:102C300009F44A94141474F5F8E0F41578F588E072
:102C4000482E2CC0B6FC2AC0812F90E08C159D0523
:102C50009CF08CEFC8168FEFD80674F09B2D90680F
:102C6000B92E0AC0E2E0F0E0EC0FFD1FE10FF11D0C
:102C70008081803319F411501111F4CFB7FE0EC0CA
:102C800044244394410E812F90E0C816D9062CF4B9
:102C90001C1904C04424439401C010E0B7FE06C0D0
:102CA0001C141D0434F4C601019605C085E090E0B3
:102CB00002C081E090E001110196112331F0212F33
:102CC00030E02F5F3F4F820F931F252D30E082179A
:102CD000930714F4581A01C0512C8B2D897069F494
:102CE000552059F0D701ED91FC910190F081E02D34
:102CF00060E2C70109955A94F3CF002349F0D70148
:102D0000ED91FC910190F081E02D602FC7010995B4
:102D1000B3FC0DC0552059F0D701ED91FC91019005
:102D2000F081E02D60E3C70109955A94F3CFB7FE17
:102D300064C09C2D8D2DD7FE02C090E080E0A92EAE
:102D4000B82E40E050E0F601E419F109FF87EE8764
:102D500096012A193B09260D371D812F90E0002787
:102D60001127081B190BFFEFAF16BF0689F4D70117
:102D7000ED91FC910190F081E02D6EE2C7012B8B6B
:102D80003A8B488B598B0995598948893A892B89FF
:102D9000CA14DB0454F0EE85FF85EA15FB052CF41C
:102DA000F901E40FF51F618101C060E3F1E0AF1AA2
:102DB000B1084F5F5F4FD701ED91FC91A016B106AE
:102DC00074F00190F081E02DC7012B8B3A8B488B7A
:102DD000598B09952B893A8948895989C4CFAC14F4
:102DE000BD0409F06FC08A81863328F4853309F069
:102DF00069C034FC67C061E365C06A81613319F062
:102E0000B32DBF7E3B2ED701ED91FC910190F08157
:102E1000E02DC701099511110AC0D701ED91FC9170
:102E20000190F081E02DB4FE1EC065E41DC0D70105
:102E3000ED91FC910190F081E02D6EE2C7010995C2
:102E400082E001E0080FD701ED91FC91D301A80FBA
:102E5000B11D0190F081E02D6C91C70109951150D1
:102E6000E1F2802FEECF65E6C7010995D7FC05C0DA
:102E7000C114D10439F434FE05C0D194C194D108F1
:102E80006DE201C06BE2D701ED91FC910190F08100
:102E9000E02DC701099560E3EAE0CE16D1042CF0DD
:102EA0006F5FBAE0CB1AD108F7CFD701ED91FC9153
:102EB0000190F081E02DC7010995D701ED91FC91BA
:102EC00060E36C0D0190F081E02DC70109955DC1B3
:102ED000333631F0333779F0333509F060C021C033
:102EE0004601B2E08B0E911CF6018081898301E0DE
:102EF00010E0630114C04601F2E08F0E911CD60170
:102F0000CD90DC9026FF03C0612F70E002C06FEF10
:102F10007FEFC6012B8B0E94C41F8C012B892F775A
:102F200015C04601B2E08B0E911CF601C080D18025
:102F300026FF03C0612F70E002C06FEF7FEFC60174
:102F40002B8B0E94B91F8C012B892068B22E23FD88
:102F500022C0852D90E008171907E8F4D701ED91FC
:102F6000FC910190F081E02D60E2C70109955A942F
:102F7000F0CFF601B7FC6591B7FE61916F01D70103
:102F8000ED91FC910190F081E02DC7010995511060
:102F90005A94015011090115110559F7F6C034363C
:102FA00011F0393651F5460127FF09C0B4E08B0E08
:102FB000911CF60160817181828193810AC0F2E0E7
:102FC0008F0E911CD6016D917C91882777FD80959D
:102FD000982F022F0F7697FF08C0909580957095D7
:102FE00061957F4F8F4F9F4F00682AE030E0A3012B
:102FF0000E941805D82ED6183EC0022F353721F46E
:103000000F7E2AE030E01DC0097F3F3691F018F4B2
:10301000383559F0C8C0303719F0383711F0C3C00F
:10302000006104FF09C0046007C024FF08C00660F7
:1030300006C028E030E005C020E130E002C020E119
:1030400032E0460107FF09C0B4E08B0E911CF60187
:10305000608171818281938108C0F2E08F0E911CA2
:10306000D6016D917C9180E090E0A3010E9418054B
:10307000D82ED6180F7706FF0BC0202F2E7FD11623
:1030800050F404FF0AC002FD08C0202F2E7E05C0A8
:10309000CD2C202F03C0CD2C01C0C12E24FF0DC08C
:1030A000FE01ED0DF11D8081803311F4297E09C0F0
:1030B00022FF06C0C394C39404C0822F867809F00F
:1030C000C39423FD17C020FF06C01D2DC51418F49E
:1030D000150D1C19C52CC51488F4D701ED91FC9170
:1030E0000190F081E02D60E2C7012B8B0995C3941C
:1030F0002B89F1CFC51410F45C1801C0512CD701F5
:10310000ED91FC9124FF16C00190F081E02D60E369
:10311000C7012B8B09952B8922FF1BC0D701ED918D
:10312000FC910190F081E02D21FF02C068E50FC005
:1031300068E70DC0822F867861F021FD02C060E251
:1031400001C06BE227FD6DE20190F081E02DC70127
:103150000995D11658F4D701ED91FC910190F081B9
:10316000E02D60E3C70109951150F3CFDA94D70140
:10317000ED91FC91D301AD0DB11D0190F081E02DD9
:103180006C91C7010995D110F1CF552009F46FCC8E
:10319000D701ED91FC910190F081E02D60E2C70133
:1031A00009955A94F2CF63960FB6F894DEBF0FBE1E
:1031B000CDBFDF91CF911F910F91FF90EF90DF90E6
:1031C000CF90BF90AF909F908F907F906F905F90C7
:1031D0004F903F902F9008951F920F920FB60F922D
:1031E00011242F933F938F939F93AF93BF9380911D
:1031F0004C0490914D04A0914E04B0914F04309135
:103200004B0423E0230F2D3720F40196A11DB11D9F
:1032100005C026E8230F0296A11DB11D20934B0483
:1032200080934C0490934D04A0934E04B0934F04AC
:103230008091500490915104A0915204B091530494
:103240000196A11DB11D8093500490935104A09349
:103250005204B0935304BF91AF919F918F913F91CE
:103260002F910F900FBE0F901F9018952FB7F894C5
:1032700060914C0470914D0480914E0490914F04E4
:103280002FBF08953FB7F894809150049091510456
:10329000A0915204B091530426B5A89B05C02F3FBE
:1032A00019F00196A11DB11D3FBF6627782F892F08
:1032B0009A2F620F711D811D911D42E0660F771FCD
:1032C000881F991F4A95D1F70895CF92DF92EF9208
:1032D000FF92CF93DF936B017C010E944219EB01B7
:1032E000C114D104E104F10489F00E941B1E0E9464
:1032F00042196C1B7D0B683E734090F381E0C81A45
:10330000D108E108F108C851DC4FEACFDF91CF9135
:10331000FF90EF90DF90CF9008958230910538F0C4
:10332000880F991F880F991F05970197F1F7089546
:10333000789484B5826084BD84B5816084BD85B590
:10334000826085BD85B5816085BDEEE6F0E0808157
:1033500081608083E1E8F0E0108280818260808378
:10336000808181608083E0E8F0E0808181608083FB
:10337000E1EBF0E0808184608083E0EBF0E080812D
:1033800081608083EAE7F0E08081846080838081CF
:103390008260808380818160808380818068808377
:1033A0001092C10008958E3008F08E5087702091E1
:1033B0000C0190E4299F90011124822B80937C00C2
:1033C00080917A00806480937A0080917A0086FDF3
:1033D000FCCF809178002091790090E0922B0895A5
:1033E000833081F028F4813099F08230A1F0089583
:1033F0008730A9F08830B9F08430D1F48091800012
:103400008F7D03C0809180008F7780938000089526
:1034100084B58F7702C084B58F7D84BD0895809177
:10342000B0008F7703C08091B0008F7D8093B00093
:103430000895CF93DF9390E0FC01E152F84F24917F
:10344000FC01ED50F84F8491882349F190E0880FFA
:10345000991FFC01E55EF74FA591B4918F5E974FE0
:10346000FC01C591D4919FB7611108C0F8948C916B
:10347000209582238C93888182230AC0623051F484
:10348000F8948C91322F309583238C938881822BF2
:10349000888304C0F8948C91822B8C939FBFDF911A
:1034A000CF9108950F931F93CF93DF931F92CDB7C2
:1034B000DEB7282F30E0F901E553F84F8491F90188
:1034C000E152F84F1491F901ED50F84F04910023A7
:1034D000C9F0882321F069830E94F0196981E02FE7
:1034E000F0E0EE0FFF1FEF5EF74FA591B4919FB78D
:1034F000F8948C91611103C01095812301C0812B38
:103500008C939FBF0F90DF91CF911F910F910895E2
:10351000CF93DF93282F30E0F901E553F84F8491E2
:10352000F901E152F84FD491F901ED50F84FC491EF
:10353000CC2391F081110E94F019EC2FF0E0EE0FF6
:10354000FF1FE95FF74FA591B4912C912D2381E0E6
:1035500090E021F480E002C080E090E0DF91CF9124
:103560000895FC01818D228D90E0805C9F4F821B2D
:1035700091098F7399270895FC01918D828D981779
:1035800031F0828DE80FF11D858D90E008958FEF69
:103590009FEF0895FC01918D828D981761F0828DC7
:1035A000DF01A80FB11D5D968C91928D9F5F9F7377
:1035B000928F90E008958FEF9FEF08958EE49CE145
:1035C000892B49F080E090E0892B29F00E944E1C65
:1035D00081110C9400000895FC01848DDF01A80F77
:1035E000B11DA35ABF4F2C91848D90E001968F732B
:1035F0009927848FA689B7892C93A089B1898C914A
:1036000080648C93938D848D981306C00288F3890F
:10361000E02D80818F7D80830895CF93DF93EC012F
:10362000888D8823C9F0EA89FB89808185FD05C0E2
:10363000A889B9898C9186FD0FC00FB607FCF5CF1C
:10364000808185FFF2CFA889B9898C9185FFEDCF64
:10365000CE010E94EC1AE7CFDF91CF910895CF926F
:10366000DF92FF920F931F93CF93DF931F92CDB7FB
:10367000DEB76C0181E0D60158968C9358975B9623
:103680009C915B975C968C915C97981307C05096C1
:10369000ED91FC915197808185FD2EC0F601038D3F
:1036A00010E00F5F1F4F0F731127F02EF601848D6E
:1036B000F81211C00FB607FCF9CFD6015096ED9164
:1036C000FC915197808185FFF1CFC60169830E94EB
:1036D000EC1A6981EBCF838DE80FF11DE35AFF4FA0
:1036E0006083D6015B960C935B975296ED91FC91AB
:1036F0005397808180620CC0D6015696ED91FC9163
:10370000579760835096ED91FC915197808180642A
:10371000808381E090E00F90DF91CF911F910F9116
:10372000FF90DF90CF900895BF92CF92DF92EF92FB
:10373000FF92CF93DF93EC016A017B01B22EE889FF
:10374000F98982E08083411581EE58076105710592
:10375000A1F060E079E08DE390E0A70196010E947E
:10376000511F215031094109510956954795379507
:103770002795211580E1380798F0E889F9891082AA
:1037800060E874E88EE190E0A70196010E94511F65
:10379000215031094109510956954795379527958B
:1037A000EC85FD853083EE85FF852083188EEC89BE
:1037B000FD89B082EA89FB89808180618083EA8902
:1037C000FB89808188608083EA89FB8980818068A9
:1037D0008083EA89FB8980818F7D8083DF91CF910F
:1037E000FF90EF90DF90CF90BF9008951F920F92BF
:1037F0000FB60F9211242F938F939F93EF93FF9304
:10380000E0916404F09165048081E0916A04F09194
:103810006B0482FD12C0908180916D048F5F8F7365
:1038200020916E04821751F0E0916D04F0E0EC5AA3
:10383000FB4F958F80936D0401C08081FF91EF91C4
:103840009F918F912F910F900FBE0F901F90189501
:103850001F920F920FB60F9211242F933F934F9305
:103860005F936F937F938F939F93AF93BF93EF93E8
:10387000FF9384E594E00E94EC1AFF91EF91BF91D1
:10388000AF919F918F917F916F915F914F913F91F8
:103890002F910F900FBE0F901F90189584E594E024
:1038A0000E94B11A21E0892B09F420E0822F0895AB
:1038B000109257041092560488EE93E0A0E0B0E016
:1038C0008093580490935904A0935A04B0935B04D6
:1038D0008EE992E0909355048093540485EC90E037
:1038E000909361048093600484EC90E0909363046F
:1038F0008093620480EC90E090936504809364046C
:1039000081EC90E0909367048093660482EC90E0F1
:10391000909369048093680486EC90E090936B0424
:1039200080936A0410926D0410926E0410926F04DA
:10393000109270040895CF92DF92EF92FF920F934E
:103940001F93CF93DF937C016A01EB0100E010E04D
:103950000C151D0571F06991D701ED91FC91019055
:10396000F081E02DC7010995892B19F00F5F1F4FDA
:10397000EFCFC801DF91CF911F910F91FF90EF9092
:10398000DF90CF9008956115710581F0DB010D90F6
:103990000020E9F7AD0141505109461B570BDC01EE
:1039A000ED91FC910280F381E02D099480E090E09C
:1039B0000895EF92FF920F931F93CF93DF938C01A3
:1039C0007B01C0E0D0E0F701EC0FFD1F649166239E
:1039D00059F0F801A081B181ED91FC91C8010995E0
:1039E000892B11F02196EFCFCE01DF91CF911F915E
:1039F0000F91FF90EF900895DC01ED91FC91019003
:103A0000F081E02D09946AEA72E00C94C31C0F93D4
:103A10001F93CF93DF93EC010E94C31C8C01CE0156
:103A20000E94031D800F911FDF91CF911F910F9175
:103A300008958F929F92AF92BF92CF92DF92EF92B2
:103A4000FF920F931F93CF93DF93CDB7DEB7A1976C
:103A50000FB6F894DEBF0FBECDBF7C01C42EE52F9C
:103A6000CB01D22E19A221E02D1510F02AE0D22E82
:103A70008E010F5D1F4F8D2C912CA12CB12C6C2D24
:103A80007E2FA50194010E94511F8C2DD29E80197A
:103A90001124015011098A3014F4805D01C0895C41
:103AA000F8018083211531054105510521F0C22E11
:103AB000E32FCA01E4CFB801C7010E94C31CA1963D
:103AC0000FB6F894DEBF0FBECDBFDF91CF911F912F
:103AD0000F91FF90EF90DF90CF90BF90AF909F90AD
:103AE0008F900895CF92DF92EF92FF920F931F93E2
:103AF000CF93DF93EC016A017B012115310579F445
:103B0000E881F9810190F081E02D642FDF91CF9160
:103B10001F910F91FF90EF90DF90CF9009942A3082
:103B20003105E9F477FF1AC06DE20E94FC1C8C019C
:103B300044275527BA014C195D096E097F092AE00F
:103B4000CE010E94191D800F911FDF91CF911F910F
:103B50000F91FF90EF90DF90CF9008952AE0B7018A
:103B6000A601CE01DF91CF911F910F91FF90EF90B1
:103B7000DF90CF900C94191D9A01AB01662757FD79
:103B80006095762F0C94721D4F925F926F927F9288
:103B9000AF92BF92CF92DF92EF92FF920F931F935B
:103BA000CF93DF93CDB7DEB729013A01621B730BC8
:103BB000840B950B29893A894B895C892A193B0921
:103BC0004C095D09298B3A8B4B8B5C8B9B01AC01BB
:103BD00069897A898B899C890E940D1FE418F508F0
:103BE00006091709A80197010E94731F2A0D3B1DA2
:103BF0004C1D5D1DCA01B901DF91CF911F910F913D
:103C0000FF90EF90DF90CF90BF90AF907F906F903C
:103C10005F904F90089508950E9498190E940B1E7E
:103C20000E94CF0ECEEDDAE10E94DA102097E1F388
:103C30000E94DE1AF9CF0895E89409C097FB3EF47C
:103C400090958095709561957F4F8F4F9F4F9923E9
:103C5000A9F0F92F96E9BB279395F6958795779567
:103C60006795B795F111F8CFFAF4BB0F11F460FF27
:103C70001BC06F5F7F4F8F4F9F4F16C0882311F07F
:103C800096E911C0772321F09EE8872F762F05C093
:103C9000662371F096E8862F70E060E02AF09A952E
:103CA000660F771F881FDAF7880F9695879597F923
:103CB000089597F99F6780E870E060E008959FEFAE
:103CC00080EC089500240A941616170618060906B3
:103CD000089500240A941216130614060506089582
:103CE000092E0394000C11F4882352F0BB0F40F40A
:103CF000BF2B11F460FF04C06F5F7F4F8F4F9F4F4A
:103D0000089557FD9058440F551F59F05F3F71F0CB
:103D10004795880F97FB991F61F09F3F79F0879532
:103D20000895121613061406551FF2CF4695F1DFBB
:103D300008C0161617061806991FF1CF869571054B
:103D4000610508940895E894BB2766277727CB017F
:103D500097F908950BD0C4CFB5DF28F0BADF18F07B
:103D6000952309F0A6CFABCF1124EECFCADFA0F385
:103D7000959FD1F3950F50E0551F629FF001729F00
:103D8000BB27F00DB11D639FAA27F00DB11DAA1F1F
:103D9000649F6627B00DA11D661F829F2227B00D6C
:103DA000A11D621F739FB00DA11D621F839FA00DF7
:103DB000611D221F749F3327A00D611D231F849F47
:103DC000600D211D822F762F6A2F11249F5750409E
:103DD0008AF0E1F088234AF0EE0FFF1FBB1F661F39
:103DE000771F881F91505040A9F79E3F510570F0F2
:103DF00060CFAACF5F3FECF3983EDCF386957795D2
:103E00006795B795F795E7959F5FC1F7FE2B880FEC
:103E1000911D9695879597F90895DB018F939F9350
:103E20000E94921FBF91AF91A29F800D911DA39FF1
:103E3000900DB29F900D11240895991B79E004C054
:103E4000991F961708F0961B881F7A95C9F78095D9
:103E50000895AA1BBB1B51E107C0AA1FBB1FA617D1
:103E6000B70710F0A61BB70B881F991F5A95A9F723
:103E700080959095BC01CD01089597FB072E16F40F
:103E8000009407D077FD09D00E94291F07FC05D0B8
:103E90003EF4909581959F4F0895709561957F4F61
:103EA0000895A1E21A2EAA1BBB1BFD010DC0AA1F7B
:103EB000BB1FEE1FFF1FA217B307E407F50720F093
:103EC000A21BB30BE40BF50B661F771F881F991F0E
:103ED0001A9469F760957095809590959B01AC0157
:103EE000BD01CF010895052E97FB1EF400940E949A
:103EF0008A1F57FD07D00E94511F07FC03D04EF4C4
:103F00000C948A1F50954095309521953F4F4F4F07
:103F10005F4F089590958095709561957F4F8F4F75
:103F20009F4F08950E94A31FA59F900DB49F900DD1
:103F3000A49F800D911D11240895EE0FFF1F059081
:103F4000F491E02D0994A29FB001B39FC001A39FFB
:103F5000700D811D1124911DB29F700D811D1124C2
:103F6000911D0895FB01DC0105900D920020E1F701
:103F70000895FC010590615070400110D8F78095BC
:103F800090958E0F9F1F0895FC0161507040019025
:103F90000110D8F7809590958E0F9F1F0895F9997D
:103FA000FECF92BD81BDF89A992780B50895262F3E
:103FB000F999FECF1FBA92BD81BD20BD0FB6F8940E
:0E3FC000FA9AF99A0FBE01960895F894FFCF71
:103FCE00010000005014960001020101010220437D
:103FDE0048414E3A203F202010201120122013205D
:103FEE00142015201620170200000000000000000B
:103FFE0000FE059B1C760579057C057F05D41425EE
:10400E006325322E3166002573002564002563007A
:10401E002573203A2569202020002573203A307818
:10402E002578202020002020202020202020202045
:10403E002020202020202020202020202020202072
:10404E0020004C494E4541520042414E4420200032
:10405E004E5453430050414C20005363616E6E69C1
:10406E006E672E2E008000494E56414C4944204525
:10407E004550524F4D20434C45415245440020631C
:10408E006861727320646F6E650002202041555482
:10409E004F204D4F4445204C4F434B0002202041B2
:1040AE0055544F204D4F4445205345454B00484FE6
:1040BE004C442042414E44205343414E4E45520003
:1040CE00202020202042414E44205343414E4E4555
:1040DE0052002053657474696E6773207361766540
:1040EE00642E2E000252756E3A2020204D494E3A13
:1040FE002020202020204D41583A20202020020050
:10410E0053617665642E2020202020202020202040
:10411E000053617665642E205245535441525449E2
:10412E004E472E2E2E009094989C8E8E8E8E8E8EB6
:10413E008E8E8E8E8E8E9195999D8E8E8E8E8E8E6D
:10414E008E8E8E8E8E8E92969A9E8E8E8E8E8E8E59
:10415E008E8E8E8E8E8E93979B9F000000002F1B4F
:10416E009B1CB11ACA1ABC1A0D1B0D0A006E616E89
:0A417E0000696E66006F76660000AF
:107800000C94343C0C94513C0C94513C0C94513CE1
:107810000C94513C0C94513C0C94513C0C94513CB4
:107820000C94513C0C94513C0C94513C0C94513CA4
:107830000C94513C0C94513C0C94513C0C94513C94
:107840000C94513C0C94513C0C94513C0C94513C84
:107850000C94513C0C94513C0C94513C0C94513C74
:107860000C94513C0C94513C11241FBECFEFD8E036
:10787000DEBFCDBF11E0A0E0B1E0ECE9FFE702C060
:1078800005900D92A230B107D9F712E0A2E0B1E065
:1078900001C01D92AD30B107E1F70E942D3D0C945F
:1078A000CC3F0C94003C982F959595959595959582
:1078B000905D8F708A307CF0282F295A8091C0000B
:1078C00085FFFCCF9093C6008091C00085FFFCCF60
:1078D0002093C6000895282F205DF0CF982F809127
:1078E000C00085FFFCCF9093C6000895EF92FF92F1
:1078F0000F931F93EE24FF2487018091C00087FD22
:1079000017C00894E11CF11C011D111D81E4E8164B
:1079100082E4F8068FE0080780E0180770F3E09132
:107920000401F091050109958091C00087FFE9CF1E
:107930008091C6001F910F91FF90EF9008950E94D3
:10794000763C982F8091C00085FFFCCF9093C600B5
:1079500091362CF490330CF09053892F089597555D
:10796000892F08951F930E949F3C182F0E949F3CCF
:107970001295107F810F1F9108951F93182F882350
:1079800021F00E94763C1150E1F71F9108951F935A
:10799000182F0E94763C803249F0809103018F5F5E
:1079A000809303018530C1F01F9108958091C0003C
:1079B00085FFFCCF84E18093C6008091C00085FFE5
:1079C000FCCF1093C6008091C00085FFFCCF80E102
:1079D0008093C6001F910895E0910401F091050184
:1079E00009951F9108950E94763C803241F0809164
:1079F00003018F5F80930301853081F008958091AA
:107A0000C00085FFFCCF84E18093C6008091C00058
:107A100085FFFCCF80E18093C6000895E0910401CA
:107A2000F09105010995089540E951E08823A1F0FE
:107A30002D9A28EE33E0FA013197F1F721503040CA
:107A4000D1F72D9828EE33E0FA013197F1F7215064
:107A50003040D1F7815061F708953F924F925F9285
:107A60006F927F928F929F92AF92BF92CF92DF924E
:107A7000EF92FF920F931F93CF93DF93000080E16B
:107A80008093C4001092C50088E18093C10086E015
:107A90008093C2005098589A259A81E00E94143D24
:107AA00024E1F22E9EE1E92E85E9D82E0FE0C02ECA
:107AB00010E1B12EAA24A394B1E49B2EA6E58A2E50
:107AC000F2E57F2EE0E26E2E79E4572E63E5462E36
:107AD00050E5352E0E94763C8033B1F18133B9F107
:107AE000803409F46FC0813409F476C0823409F41B
:107AF00085C0853409F488C0803531F1823521F1A3
:107B0000813511F1853509F485C0863509F48DC0BC
:107B1000843609F496C0843709F403C1853709F423
:107B200072C1863709F466C0809103018F5F80932C
:107B30000301853079F6E0910401F0910501099582
:107B40000E94763C803351F60E94F33CC3CF0E94E2
:107B5000763C803249F78091C00085FFFCCFF092DF
:107B6000C6008091C00085FFFCCF9092C600809136
:107B7000C00085FFFCCF8092C6008091C00085FFC9
:107B8000FCCF7092C6008091C00085FFFCCF609250
:107B9000C6008091C00085FFFCCF5092C600809146
:107BA000C00085FFFCCF4092C6008091C00085FFD9
:107BB000FCCF3092C6008091C00085FFFCCFB09210
:107BC000C60088CF0E94763C863808F4BDCF0E945C
:107BD000763C0E94F33C7ECF0E94763C803809F4CC
:107BE0009CC0813809F40BC1823809F43CC1883942
:107BF00009F48FC080E00E94C73C6CCF84E10E94F2
:107C0000BD3C0E94F33C66CF85E00E94BD3C0E94D3
:107C1000F33C60CF0E94763C809306010E94763C44
:107C2000809307010E94F33C55CF0E94763C80333D
:107C300009F41DC183E00E94BD3C80E00E94C73C66
:107C400049CF0E94763C809309020E94763C809343
:107C5000080280910C028E7F80930C020E94763C79
:107C6000853409F415C18091080290910902892B8D
:107C700089F000E010E00E94763CF801E85FFE4FDA
:107C800080830F5F1F4F80910802909109020817AF
:107C9000190788F30E94763C803209F045CF809125
:107CA0000C0280FF01C16091060170910701660F0F
:107CB000771F7093070160930601A0910802B091AD
:107CC00009021097C9F0E8E0F1E09B01AD014E0F09
:107CD0005F1FF999FECF32BD21BD819180BDFA9A17
:107CE000F99A2F5F3F4FE417F50799F76A0F7B1F4B
:107CF00070930701609306018091C00085FFFCCF5F
:107D0000F092C6008091C00085FFFCCFB092C60003
:107D1000E1CE83E00E94C73CDDCE82E00E94C73CFA
:107D2000D9CE0E94763C809309020E94763C8093D3
:107D300008028091060190910701880F991F909386
:107D40000701809306010E94763C853409F4A6C0A1
:107D500080910C028E7F80930C020E94763C8032D0
:107D600009F0B8CE8091C00085FFFCCFF092C6002C
:107D7000609108027091090261157105B9F140E046
:107D800050E080910C02A82FA170B82FB27011C0E2
:107D9000BB2309F45CC0E0910601F0910701319624
:107DA000F0930701E09306014F5F5F4F46175707B7
:107DB000E8F4AA2369F3F999FECF209106013091E6
:107DC000070132BD21BDF89A90B58091C00085FFB2
:107DD000FCCF9093C6002F5F3F4F30930701209355
:107DE00006014F5F5F4F4617570718F38091C00099
:107DF00085FDE5CE8091C00085FFF8CFE0CE81E023
:107E00000E94C73C67CE0E94763C803209F08CCE3F
:107E10008091C00085FFFCCFF092C6008091C00029
:107E200085FFFCCFE092C6008091C00085FFFCCFAB
:107E3000D092C6008091C00085FFFCCFC092C600E2
:107E40008091C00085FFFCCFB092C60043CEE09188
:107E50000601F091070194918091C00085FFFCCF4D
:107E60009093C6009CCF80E10E94C73C33CE0E9415
:107E7000763C0E94763C182F0E94763C112309F430
:107E800083C0113009F484C08FE00E94C73C22CE29
:107E900080910C02816080930C02E5CE80910C02EF
:107EA000816080930C0259CF809107018823880F4D
:107EB000880B8A2180930B02809106019091070123
:107EC000880F991F90930701809306018091080203
:107ED00080FF09C080910802909109020196909359
:107EE000090280930802F894F999FECF1127E091D6
:107EF0000601F0910701C8E0D1E08091080290915D
:107F00000902103091F40091570001700130D9F34B
:107F100003E000935700E89500915700017001308D
:107F2000D9F301E100935700E89509901990009169
:107F3000570001700130D9F301E000935700E89534
:107F40001395103498F011270091570001700130FB
:107F5000D9F305E000935700E895009157000170B0
:107F60000130D9F301E100935700E895329602976A
:107F700009F0C7CF103011F00296E5CF112480919F
:107F8000C00085FFB9CEBCCE8EE10E94C73CA2CD19
:0C7F900085E90E94C73C9ECDF894FFCF0D
:027F9C00800063
:040000030000780081
:00000001FF
